{
  "contractName": "DiplomaViewer",
  "abi": [
    {
      "inputs": [],
      "payable": false,
      "stateMutability": "nonpayable",
      "type": "constructor"
    },
    {
      "constant": true,
      "inputs": [
        {
          "name": "_addr",
          "type": "address"
        },
        {
          "name": "_universityID",
          "type": "uint256"
        }
      ],
      "name": "getDiploma",
      "outputs": [
        {
          "name": "",
          "type": "string"
        },
        {
          "name": "",
          "type": "address"
        },
        {
          "name": "",
          "type": "string"
        },
        {
          "name": "",
          "type": "uint256"
        }
      ],
      "payable": false,
      "stateMutability": "view",
      "type": "function"
    },
    {
      "constant": false,
      "inputs": [
        {
          "name": "_universityAddress",
          "type": "address"
        },
        {
          "name": "_universityID",
          "type": "uint256"
        }
      ],
      "name": "addUniversity",
      "outputs": [],
      "payable": false,
      "stateMutability": "nonpayable",
      "type": "function"
    }
  ],
  "bytecode": "0x608060405234801561001057600080fd5b50336000806101000a81548173ffffffffffffffffffffffffffffffffffffffff021916908373ffffffffffffffffffffffffffffffffffffffff160217905550610526806100606000396000f3fe60806040526004361061004c576000357c0100000000000000000000000000000000000000000000000000000000900463ffffffff1680633746d75c14610051578063de66e63c146101cb575b600080fd5b34801561005d57600080fd5b506100aa6004803603604081101561007457600080fd5b81019080803573ffffffffffffffffffffffffffffffffffffffff16906020019092919080359060200190929190505050610226565b60405180806020018573ffffffffffffffffffffffffffffffffffffffff1673ffffffffffffffffffffffffffffffffffffffff16815260200180602001848152602001838103835287818151815260200191508051906020019080838360005b8381101561012657808201518184015260208101905061010b565b50505050905090810190601f1680156101535780820380516001836020036101000a031916815260200191505b50838103825285818151815260200191508051906020019080838360005b8381101561018c578082015181840152602081019050610171565b50505050905090810190601f1680156101b95780820380516001836020036101000a031916815260200191505b50965050505050505060405180910390f35b3480156101d757600080fd5b50610224600480360360408110156101ee57600080fd5b81019080803573ffffffffffffffffffffffffffffffffffffffff16906020019092919080359060200190929190505050610449565b005b6060600060606000806001600087815260200190815260200160002060009054906101000a900473ffffffffffffffffffffffffffffffffffffffff169050600073ffffffffffffffffffffffffffffffffffffffff168173ffffffffffffffffffffffffffffffffffffffff16141515156102a157600080fd5b60008190508073ffffffffffffffffffffffffffffffffffffffff1663c6f3fc4c896040518263ffffffff167c0100000000000000000000000000000000000000000000000000000000028152600401808273ffffffffffffffffffffffffffffffffffffffff1673ffffffffffffffffffffffffffffffffffffffff16815260200191505060006040518083038186803b15801561033f57600080fd5b505afa158015610353573d6000803e3d6000fd5b505050506040513d6000823e3d601f19601f82011682018060405250608081101561037d57600080fd5b81019080805164010000000081111561039557600080fd5b828101905060208101848111156103ab57600080fd5b81518560018202830111640100000000821117156103c857600080fd5b50509291906020018051906020019092919080516401000000008111156103ee57600080fd5b8281019050602081018481111561040457600080fd5b815185600182028301116401000000008211171561042157600080fd5b5050929190602001805190602001909291905050509550955095509550505092959194509250565b6000809054906101000a900473ffffffffffffffffffffffffffffffffffffffff1673ffffffffffffffffffffffffffffffffffffffff163373ffffffffffffffffffffffffffffffffffffffff161415156104a457600080fd5b816001600083815260200190815260200160002060006101000a81548173ffffffffffffffffffffffffffffffffffffffff021916908373ffffffffffffffffffffffffffffffffffffffff160217905550505056fea165627a7a72305820e0deb3341bffe20f723b53eab82711dcaa1e2be22f89fae0ea31219409bb95a20029",
  "source": "pragma solidity ^0.5.0;\nimport \"./Institution.sol\";\n\ncontract DiplomaViewer {\n    address owner;\n    // University ID => Address of the university contract\n    mapping (uint => address) trustedUniversities;\n\n    // Sets the owner of the contract once constructed\n    constructor() public {\n        owner = msg.sender;\n    }\n\n    // Returns the diploma of the person at the university\n    function getDiploma(address _addr, uint _universityID) public view returns(string memory, address, string memory, uint) {\n        address universityAddress = trustedUniversities[_universityID];\n        require(universityAddress!=address(0)); // Checks if university address exist\n        Institution institutionContract = Institution(universityAddress);\n        return institutionContract.viewDiploma(_addr);\n    }\n\n    // Adds or modify a university's address\n    function addUniversity(address _universityAddress, uint _universityID) public {\n        require(msg.sender == owner);\n        trustedUniversities[_universityID] = _universityAddress;\n    }\n}",
  "sourcePath": "/home/vagrant/host/FP-master/contracts/DiplomaViewer.sol",
  "compiler": {
    "name": "solc",
    "version": "0.5.0+commit.1d4f565a.Emscripten.clang"
  },
  "schemaVersion": "3.0.6",
  "updatedAt": "2019-04-19T20:51:08.288Z",
  "devdoc": {
    "methods": {}
  },
  "userdoc": {
    "methods": {}
  }
}