{
  "contractName": "Person",
  "abi": [
    {
      "inputs": [],
      "payable": false,
      "stateMutability": "nonpayable",
      "type": "constructor"
    },
    {
      "constant": false,
      "inputs": [
        {
          "name": "_address",
          "type": "address"
        },
        {
          "name": "_name",
          "type": "string"
        },
        {
          "name": "_degree",
          "type": "string"
        },
        {
          "name": "_lastUpdate",
          "type": "uint256"
        },
        {
          "name": "_email",
          "type": "string"
        }
      ],
      "name": "addPerson",
      "outputs": [],
      "payable": false,
      "stateMutability": "nonpayable",
      "type": "function"
    },
    {
      "constant": true,
      "inputs": [
        {
          "name": "_address",
          "type": "address"
        }
      ],
      "name": "viewPerson",
      "outputs": [
        {
          "name": "",
          "type": "string"
        },
        {
          "name": "personaddress",
          "type": "address"
        },
        {
          "name": "degree",
          "type": "string"
        },
        {
          "name": "lastUpdate",
          "type": "uint256"
        },
        {
          "name": "email",
          "type": "string"
        }
      ],
      "payable": false,
      "stateMutability": "view",
      "type": "function"
    }
  ],
  "bytecode": "0x608060405234801561001057600080fd5b50336000806101000a81548173ffffffffffffffffffffffffffffffffffffffff021916908373ffffffffffffffffffffffffffffffffffffffff1602179055506109b8806100606000396000f3fe60806040526004361061004c576000357c0100000000000000000000000000000000000000000000000000000000900463ffffffff16806327876b871461005157806344d08d7514610271575b600080fd5b34801561005d57600080fd5b5061026f600480360360a081101561007457600080fd5b81019080803573ffffffffffffffffffffffffffffffffffffffff169060200190929190803590602001906401000000008111156100b157600080fd5b8201836020820111156100c357600080fd5b803590602001918460018302840111640100000000831117156100e557600080fd5b91908080601f016020809104026020016040519081016040528093929190818152602001838380828437600081840152601f19601f8201169050808301925050505050505091929192908035906020019064010000000081111561014857600080fd5b82018360208201111561015a57600080fd5b8035906020019184600183028401116401000000008311171561017c57600080fd5b91908080601f016020809104026020016040519081016040528093929190818152602001838380828437600081840152601f19601f82011690508083019250505050505050919291929080359060200190929190803590602001906401000000008111156101e957600080fd5b8201836020820111156101fb57600080fd5b8035906020019184600183028401116401000000008311171561021d57600080fd5b91908080601f016020809104026020016040519081016040528093929190818152602001838380828437600081840152601f19601f82011690508083019250505050505050919291929050505061044d565b005b34801561027d57600080fd5b506102c06004803603602081101561029457600080fd5b81019080803573ffffffffffffffffffffffffffffffffffffffff16906020019092919050505061067c565b60405180806020018673ffffffffffffffffffffffffffffffffffffffff1673ffffffffffffffffffffffffffffffffffffffff1681526020018060200185815260200180602001848103845289818151815260200191508051906020019080838360005b83811015610340578082015181840152602081019050610325565b50505050905090810190601f16801561036d5780820380516001836020036101000a031916815260200191505b50848103835287818151815260200191508051906020019080838360005b838110156103a657808201518184015260208101905061038b565b50505050905090810190601f1680156103d35780820380516001836020036101000a031916815260200191505b50848103825285818151815260200191508051906020019080838360005b8381101561040c5780820151818401526020810190506103f1565b50505050905090810190601f1680156104395780820380516001836020036101000a031916815260200191505b509850505050505050505060405180910390f35b6000809054906101000a900473ffffffffffffffffffffffffffffffffffffffff1673ffffffffffffffffffffffffffffffffffffffff163373ffffffffffffffffffffffffffffffffffffffff161415156104a857600080fd5b84600160008773ffffffffffffffffffffffffffffffffffffffff1673ffffffffffffffffffffffffffffffffffffffff16815260200190815260200160002060010160006101000a81548173ffffffffffffffffffffffffffffffffffffffff021916908373ffffffffffffffffffffffffffffffffffffffff16021790555082600160008773ffffffffffffffffffffffffffffffffffffffff1673ffffffffffffffffffffffffffffffffffffffff168152602001908152602001600020600201908051906020019061057f9291906108e7565b5081600160008773ffffffffffffffffffffffffffffffffffffffff1673ffffffffffffffffffffffffffffffffffffffff1681526020019081526020016000206003018190555083600160008773ffffffffffffffffffffffffffffffffffffffff1673ffffffffffffffffffffffffffffffffffffffff168152602001908152602001600020600001908051906020019061061d9291906108e7565b5080600160008773ffffffffffffffffffffffffffffffffffffffff1673ffffffffffffffffffffffffffffffffffffffff16815260200190815260200160002060040190805190602001906106749291906108e7565b505050505050565b606060006060600060606000600160008873ffffffffffffffffffffffffffffffffffffffff1673ffffffffffffffffffffffffffffffffffffffff1681526020019081526020016000209050806000018160010160009054906101000a900473ffffffffffffffffffffffffffffffffffffffff1682600201836003015484600401848054600181600116156101000203166002900480601f0160208091040260200160405190810160405280929190818152602001828054600181600116156101000203166002900480156107945780601f1061076957610100808354040283529160200191610794565b820191906000526020600020905b81548152906001019060200180831161077757829003601f168201915b50505050509450828054600181600116156101000203166002900480601f0160208091040260200160405190810160405280929190818152602001828054600181600116156101000203166002900480156108305780601f1061080557610100808354040283529160200191610830565b820191906000526020600020905b81548152906001019060200180831161081357829003601f168201915b50505050509250808054600181600116156101000203166002900480601f0160208091040260200160405190810160405280929190818152602001828054600181600116156101000203166002900480156108cc5780601f106108a1576101008083540402835291602001916108cc565b820191906000526020600020905b8154815290600101906020018083116108af57829003601f168201915b50505050509050955095509550955095505091939590929450565b828054600181600116156101000203166002900490600052602060002090601f016020900481019282601f1061092857805160ff1916838001178555610956565b82800160010185558215610956579182015b8281111561095557825182559160200191906001019061093a565b5b5090506109639190610967565b5090565b61098991905b8082111561098557600081600090555060010161096d565b5090565b9056fea165627a7a7230582028328d3780a13cb9af6647f4a9f4ad276ac52f8eb736ccb0cf7470b5cdb91db10029",
  "source": "pragma solidity ^0.5.0;\n\ncontract Person {\n\n    // Fields of a diploma\n    struct Person {  \n        string name; \n        address personAddress; \n        string degree;\n        uint lastUpdate;\n        string email; \t\t\n    } \n\n    address owner;\n\n    // Address => Person\n    mapping(address => Person) personList;\n\n    constructor () public { \n        owner = msg.sender;\n    } \n\n    // Add a new Person\n    function addPerson(address _address, string memory _name, string memory _degree, uint _lastUpdate, string memory _email) public { \n        require(msg.sender == owner); \n        personList[_address].personAddress = _address; \n        personList[_address].degree = _degree; \n        personList[_address].lastUpdate = _lastUpdate; \n        personList[_address].name = _name;\n        personList[_address].email = _email;\t\t\n    }\n\n    // View person\n    function viewPerson(address _address) public view returns(\n\t       string memory, address personaddress, \n\t\t   string memory degree, uint lastUpdate, \n\t\t   string memory email\n    ) {\n        Person storage person = personList[_address];\n        return (\n\t\t    person.name, person.personAddress, \n\t        person.degree, person.lastUpdate, \n\t\t    person.email\n\t    );\n    }\n}",
  "sourcePath": "/home/vagrant/host/FP/contracts/Person.sol",
  "compiler": {
    "name": "solc",
    "version": "0.5.0+commit.1d4f565a.Emscripten.clang"
  },
  "schemaVersion": "3.0.6",
  "updatedAt": "2019-04-23T19:30:04.333Z",
  "devdoc": {
    "methods": {}
  },
  "userdoc": {
    "methods": {}
  }
}