{
  "contractName": "Platform",
  "abi": [
    {
      "inputs": [],
      "payable": false,
      "stateMutability": "nonpayable",
      "type": "constructor",
      "signature": "constructor"
    },
    {
      "constant": false,
      "inputs": [
        {
          "name": "_studentAddress",
          "type": "address"
        },
        {
          "name": "_degree",
          "type": "string"
        },
        {
          "name": "_date",
          "type": "uint256"
        }
      ],
      "name": "addDipoloma",
      "outputs": [],
      "payable": false,
      "stateMutability": "nonpayable",
      "type": "function",
      "signature": "0x0afb2ae4"
    },
    {
      "constant": true,
      "inputs": [
        {
          "name": "_studentAddress",
          "type": "address"
        },
        {
          "name": "_universityAddress",
          "type": "address"
        }
      ],
      "name": "viewDiploma",
      "outputs": [
        {
          "name": "",
          "type": "string"
        },
        {
          "name": "",
          "type": "uint256"
        }
      ],
      "payable": false,
      "stateMutability": "view",
      "type": "function",
      "signature": "0x29ff8909"
    },
    {
      "constant": false,
      "inputs": [
        {
          "name": "_name",
          "type": "string"
        },
        {
          "name": "_email",
          "type": "string"
        }
      ],
      "name": "updatePerson",
      "outputs": [],
      "payable": false,
      "stateMutability": "nonpayable",
      "type": "function",
      "signature": "0x463b0328"
    },
    {
      "constant": true,
      "inputs": [
        {
          "name": "_personAddress",
          "type": "address"
        }
      ],
      "name": "viewPerson",
      "outputs": [
        {
          "name": "",
          "type": "string"
        },
        {
          "name": "",
          "type": "string"
        },
        {
          "name": "",
          "type": "string"
        },
        {
          "name": "",
          "type": "uint256"
        },
        {
          "name": "",
          "type": "uint256"
        }
      ],
      "payable": false,
      "stateMutability": "view",
      "type": "function",
      "signature": "0x44d08d75"
    }
  ],
  "bytecode": "0x608060405234801561001057600080fd5b50610cbe806100206000396000f3fe608060405260043610610062576000357c0100000000000000000000000000000000000000000000000000000000900463ffffffff1680630afb2ae41461006757806329ff89091461015957806344d08d751461024a578063463b0328146103fa575b600080fd5b34801561007357600080fd5b506101576004803603606081101561008a57600080fd5b81019080803573ffffffffffffffffffffffffffffffffffffffff169060200190929190803590602001906401000000008111156100c757600080fd5b8201836020820111156100d957600080fd5b803590602001918460018302840111640100000000831117156100fb57600080fd5b91908080601f016020809104026020016040519081016040528093929190818152602001838380828437600081840152601f19601f82011690508083019250505050505050919291929080359060200190929190505050610559565b005b34801561016557600080fd5b506101c86004803603604081101561017c57600080fd5b81019080803573ffffffffffffffffffffffffffffffffffffffff169060200190929190803573ffffffffffffffffffffffffffffffffffffffff1690602001909291905050506106d8565b6040518080602001838152602001828103825284818151815260200191508051906020019080838360005b8381101561020e5780820151818401526020810190506101f3565b50505050905090810190601f16801561023b5780820380516001836020036101000a031916815260200191505b50935050505060405180910390f35b34801561025657600080fd5b506102996004803603602081101561026d57600080fd5b81019080803573ffffffffffffffffffffffffffffffffffffffff16906020019092919050505061080b565b60405180806020018060200180602001868152602001858152602001848103845289818151815260200191508051906020019080838360005b838110156102ed5780820151818401526020810190506102d2565b50505050905090810190601f16801561031a5780820380516001836020036101000a031916815260200191505b50848103835288818151815260200191508051906020019080838360005b83811015610353578082015181840152602081019050610338565b50505050905090810190601f1680156103805780820380516001836020036101000a031916815260200191505b50848103825287818151815260200191508051906020019080838360005b838110156103b957808201518184015260208101905061039e565b50505050905090810190601f1680156103e65780820380516001836020036101000a031916815260200191505b509850505050505050505060405180910390f35b34801561040657600080fd5b506105576004803603604081101561041d57600080fd5b810190808035906020019064010000000081111561043a57600080fd5b82018360208201111561044c57600080fd5b8035906020019184600183028401116401000000008311171561046e57600080fd5b91908080601f016020809104026020016040519081016040528093929190818152602001838380828437600081840152601f19601f820116905080830192505050505050509192919290803590602001906401000000008111156104d157600080fd5b8201836020820111156104e357600080fd5b8035906020019184600183028401116401000000008311171561050557600080fd5b91908080601f016020809104026020016040519081016040528093929190818152602001838380828437600081840152601f19601f820116905080830192505050505050509192919290505050610a5a565b005b610561610b53565b6040805190810160405280848152602001838152509050806000803373ffffffffffffffffffffffffffffffffffffffff1673ffffffffffffffffffffffffffffffffffffffff16815260200190815260200160002060008673ffffffffffffffffffffffffffffffffffffffff1673ffffffffffffffffffffffffffffffffffffffff1681526020019081526020016000206000820151816000019080519060200190610610929190610b6d565b506020820151816001015590505080600160008673ffffffffffffffffffffffffffffffffffffffff1673ffffffffffffffffffffffffffffffffffffffff168152602001908152602001600020600201600082015181600001908051906020019061067d929190610b6d565b506020820151816001015590505042600160008673ffffffffffffffffffffffffffffffffffffffff1673ffffffffffffffffffffffffffffffffffffffff1681526020019081526020016000206004018190555050505050565b60606000806000808573ffffffffffffffffffffffffffffffffffffffff1673ffffffffffffffffffffffffffffffffffffffff16815260200190815260200160002060008673ffffffffffffffffffffffffffffffffffffffff1673ffffffffffffffffffffffffffffffffffffffff1681526020019081526020016000209050806000018160010154818054600181600116156101000203166002900480601f0160208091040260200160405190810160405280929190818152602001828054600181600116156101000203166002900480156107f85780601f106107cd576101008083540402835291602001916107f8565b820191906000526020600020905b8154815290600101906020018083116107db57829003601f168201915b5050505050915092509250509250929050565b60608060606000806000600160008873ffffffffffffffffffffffffffffffffffffffff1673ffffffffffffffffffffffffffffffffffffffff168152602001908152602001600020905080600001816001018260020160000183600201600101548460040154848054600181600116156101000203166002900480601f0160208091040260200160405190810160405280929190818152602001828054600181600116156101000203166002900480156109075780601f106108dc57610100808354040283529160200191610907565b820191906000526020600020905b8154815290600101906020018083116108ea57829003601f168201915b50505050509450838054600181600116156101000203166002900480601f0160208091040260200160405190810160405280929190818152602001828054600181600116156101000203166002900480156109a35780601f10610978576101008083540402835291602001916109a3565b820191906000526020600020905b81548152906001019060200180831161098657829003601f168201915b50505050509350828054600181600116156101000203166002900480601f016020809104026020016040519081016040528092919081815260200182805460018160011615610100020316600290048015610a3f5780601f10610a1457610100808354040283529160200191610a3f565b820191906000526020600020905b815481529060010190602001808311610a2257829003601f168201915b50505050509250955095509550955095505091939590929450565b81600160003373ffffffffffffffffffffffffffffffffffffffff1673ffffffffffffffffffffffffffffffffffffffff1681526020019081526020016000206000019080519060200190610ab0929190610bed565b5080600160003373ffffffffffffffffffffffffffffffffffffffff1673ffffffffffffffffffffffffffffffffffffffff1681526020019081526020016000206001019080519060200190610b07929190610bed565b5042600160003373ffffffffffffffffffffffffffffffffffffffff1673ffffffffffffffffffffffffffffffffffffffff168152602001908152602001600020600401819055505050565b604080519081016040528060608152602001600081525090565b828054600181600116156101000203166002900490600052602060002090601f016020900481019282601f10610bae57805160ff1916838001178555610bdc565b82800160010185558215610bdc579182015b82811115610bdb578251825591602001919060010190610bc0565b5b509050610be99190610c6d565b5090565b828054600181600116156101000203166002900490600052602060002090601f016020900481019282601f10610c2e57805160ff1916838001178555610c5c565b82800160010185558215610c5c579182015b82811115610c5b578251825591602001919060010190610c40565b5b509050610c699190610c6d565b5090565b610c8f91905b80821115610c8b576000816000905550600101610c73565b5090565b9056fea165627a7a72305820b09c8c109f842644f5b9ef32e4825d6fc841a33982bf0e25d7495e00ac77d1930029",
  "source": "pragma solidity ^0.5.0;\n\ncontract Platform {\n\n    // Fields of a diploma\n    struct Diploma {  \n        string degree;\n        uint date; \n    } \n\n    // Fields of a Person\n    struct Person {  \n        string name;\n        string email; \n        Diploma degree;\n        uint lastUpdate;\t\t\n    } \n\n    // University Address => Student Address => Diploma\n    mapping(address => mapping(address => Diploma)) universityMapping;\n\n    // Person Address => Person Profile\n    mapping(address => Person) personMapping;\n\n    constructor () public { \n       \n    } \n\n    // Add a new Diploma\n    function addDipoloma(address _studentAddress, string memory _degree, uint _date) public {\n        Diploma memory newDiploma = Diploma(_degree,_date); \n        universityMapping[msg.sender][_studentAddress] = newDiploma;\n        personMapping[_studentAddress].degree = newDiploma;\n        personMapping[_studentAddress].lastUpdate = now;\n    }\n\n    // View diploma of given person at an institution\n    function viewDiploma(address _studentAddress, address _universityAddress) public view returns(string memory, uint) {\n        Diploma storage diploma = universityMapping[_universityAddress][_studentAddress];\n        return (diploma.degree, diploma.date);\n    }\n\n    // Add a new Person Profile\n    function updatePerson(string memory _name, string memory _email) public{\n        personMapping[msg.sender].name = _name;\n        personMapping[msg.sender].email = _email;\n        personMapping[msg.sender].lastUpdate = now;\n    }\n\n    // View the profile of a person\n    function viewPerson(address _personAddress) public view returns(string memory,string memory, string memory,uint, uint) {\n        Person storage person = personMapping[_personAddress];\n        return(person.name,person.email,person.degree.degree,person.degree.date,person.lastUpdate);\n    }\n\n}\n\n    \n    \n",
  "sourcePath": "/home/vagrant/host/FP/contracts/Platform.sol",
  "compiler": {
    "name": "solc",
    "version": "0.5.0+commit.1d4f565a.Emscripten.clang"
  },
  "schemaVersion": "3.0.6",
  "updatedAt": "2019-04-19T20:17:48.158Z",
  "devdoc": {
    "methods": {}
  },
  "userdoc": {
    "methods": {}
  }
}